:100000000C9445000C9400000C9400000C9400002B
:100010000C9400000C9400000C9400000C94000060
:100020000C9400000C9400000C9400000C94000050
:100030000C9400000C9400000C9400000C94000040
:100040000C9400000C9400000C9400000C94000030
:100050000C9400001027E80364000A00010000105F
:100060000001100001003A002F003230000080C073
:1000700001002D4E414E00494E46000002006A022A
:100080006E000100700270000000F894EE27ECBBD7
:10009000F1E0FBBFEBBFE5BF8DE0A2E0BB27ED9336
:1000A0008A95E9F780E098E0A0E6ED930197E9F7FB
:1000B000ECE7F0E085919591009761F0A591B591FD
:1000C00005901590BF01F00105900D920197E1F7A1
:1000D000FB01F0CFEFE5EDBFE8E0EEBFC0E6D2E018
:1000E0000C947200E0E0EABBEBBBE7BBE8BBE4BB0F
:1000F000E5BBE1BBE2BBE3BFE2BFECBFEFBDEEBDE2
:10010000EDBDECBDE7BDE6BDEBBDEABDE9BDE8BDBB
:10011000E2BDE5BDE4BDE3BDE9BFE5BFE4BFEAB9CB
:10012000E0E8E8B9E0E0E0BFE6B9EDB9E6BF0E947B
:100130009502E0E0EA93EA93A0E08AD0A4E14DD1F1
:1001400003D1E0E0EA93A1E0F0D0E5E0F0E0FA933B
:10015000EA93E4E0F0E0FA93EA93A7E0B0E091D00C
:10016000E6E0F0E0FA93EA93E9E0F0E0FA93EA934C
:10017000E8E0F0E0FA93EA93ABE0B0E09BD0E6E091
:10018000EA93A0E0D2D0E52DF0E0FA93EA93D6010D
:100190000E941C02D6010E945702E42DF0E0FA935F
:1001A000EA93A0916002B09161020E941C02A091AA
:1001B0006002B09161020E945702E72DF0E0FA93CD
:1001C000EA93A0916202B09163020E941C02A09186
:1001D0006202B0916302DFD0E6E0EA93A1E0A5D02D
:1001E000E92DF0E0FA93EA93A0916402B0916502E0
:1001F0000E941C02A0916402B09165020E945D02FF
:10020000E82DF0E0FA93EA93A0916602B0916702BC
:100210000E941C02A0916602B09167020E945D02DA
:10022000AAE6B0E0C7D0EB2DF0E0FA93EA93A091F4
:100230006802B09169020E941C02A0916802B0910C
:100240006902A9D0A8EEB3E00E94E60279CFFFCF01
:10025000AA93EA81E370EA83E981E03019F0EA8148
:10026000E061EA83E881E03019F0EA81E068EA833E
:100270000E946302A7E00E94CE02AA810E94680247
:10028000AAC0BA93AA930E946302A0E00E946802E7
:100290000E946C020E9474020E947B020E948102F2
:1002A000AE2F0E944A02AC81BD81EC930E94A9024C
:1002B00026960895BA93AA930E946302A3E00E942F
:1002C00068020E946C02AE81BF81EC930E947B02A7
:1002D000AC81BD81EC930E947B020E9481020E944E
:1002E00074020E94A90228960895AA93EBB3EF70B6
:1002F000AE2FE881E07FEA2BEBBB8DE08A95F1F72A
:10030000DA9A8DE08A95F1F7DA988DE08A95F1F71F
:1003100091C0AA93A881E9DFE881E295E883A881EA
:10032000E4DF85E88A95F1F785C0AA93E881F0E0DB
:10033000E659FD4FE081A981AE0FEBDFA980E8818E
:10034000E0936E0222960895A2E00E948702ACE03C
:10035000E0DFA1E00E948702E0E0E0936E02AE2EB3
:100360000895AA93A881AA3021F0E0916F02AE16F9
:1003700060F0E0E0EA93A0916E02AF5FA0936E029E
:10038000D4DFA881AA3009F455C0A394D89AA881D3
:10039000C0DFD8984FC0BA93AA931A93A981BA81A3
:1003A000ED91A983BA831E2FE03019F0A12FD9DF78
:1003B000F5CF10C0BA93AA931A93E981FA813196C6
:1003C000E983FA833197E4911E2FE03019F0A12FD1
:1003D000C8DFF3CF188123960895AA93EAB3E06F9C
:1003E000EABBD29AD09AD19ADA98D898D998E8816B
:1003F000E0936F02E058E0936C02E881E054E093F0
:100400006D02A4E1B0E00E94E6020E948D020E940B
:100410008D020E948D02A0E268DF88EC90E00197D7
:10042000F1F7A8E276DFA4E074DFA5E872DFA6E0CA
:1004300070DF8ADF21960895BA93AA93A991B991A2
:10044000E991F99130962AF4E095F09531966DE2B4
:100450006D93E89480E197E20DD088EE93E00AD0A6
:1004600084E6992707D08AE005D06E2F10D0662742
:100470006C9308956627E817F90720F06395E81B49
:10048000F90BC9F7662311F416F008956894605DBE
:100490006D930895AA93E881E295EF70AE2FAA0FAD
:1004A000AA0FEA0FEE0FA991AF70EA0F08950E940C
:1004B000CB01A6E6B0E00C94DA010E94CB01A8E6DD
:1004C000B0E00C94DA010E949A02A0ED0C94CE02E6
:1004D0000E94CE020C94A9020E949A02A1ED0E94F1
:1004E000CE02A1E00C94B302AE2F0E944A02A88172
:1004F000B981EC930895A1E00E94B302AE2F0C9451
:100500004A02AA81BB81EC93A0E00C94B3020E9442
:100510008901A3E0B0E00C94E602A0E30E9475011B
:1005200088EC90E00197F1F70895A898A998A09A0F
:10053000A19815C0A198A098EE270000999B089556
:10054000989B089504D0A19A02D0A09AE1E06DE0B2
:1005500007C0A19AA09A03D0A098F9DFA1986BE1F7
:100560006A95F1F7089578E0A098F1DF989BFECFA7
:10057000EEDF889499990894A09AF1DFEE1F7A959E
:1005800099F77A2F772311F4A19801C0A19ADFDFA0
:10059000A098E5DFA09ADBDFA198D9CF78E0AA0F79
:1005A00010F4A19801C0A19ADADFA098D0DF989B3F
:1005B000FECFCDDFA09A7A9591F7A198C8DFA098D9
:1005C000CEDFE1E09999EE27A09AC1CF109639F0DD
:1005D00080ED97E00197F1F7A8951197C9F7089575
:00000001FF
