:080000000C9476000C94000042
:100008000C9400000C9400000C9400000C94000068
:100018000C9400000C9400000C9400000C94000058
:100028000C9400000C9400000C9400000C94000048
:100038000C9400000C9400000C9400000C94000038
:100048000C9400000C9400000C9400001027E803A6
:1000580064000A00010000100001100001003031A6
:1000680032333435363738392F2A2B2D4B455950F2
:10007800414420414E44204C43440050524F4A458D
:100088004354004572726F72005A65726F2044695A
:10009800766973696F6E000080C00A00B10266005D
:1000A8000400BB0270000F006002740008006F02B9
:1000B8008300060077028B0006007D028B000E008D
:1000C80083029100060091028B000E0097029100B6
:1000D8000600A5028B000600AB028B000200C902D5
:1000E800A0000000F894EE27ECBBF1E0FBBFEBBFEB
:1000F800E5BF8DE0A2E0BB27ED938A95E9F780E0A4
:1001080098E0A0E6ED930197E9F7E2EAF0E085913F
:100118009591009761F0A591B59105901590BF0153
:10012800F00105900D920197E1F7FB01F0CFEFE5A3
:10013800EDBFE8E0EEBFC0E6D2E00C94A30030E0EB
:10014800EFEFE4BBEFE0E1BBE0E0E5BBA0E10E943C
:1001580041030E940F03E1E00E946F03A0E6B2E0B2
:100168000E943003E5E0EA93A1E00E940203AFE6B3
:10017800B2E00E943003A0EDB7E00E94BE030E94E7
:100188000F03C7D11E2F1F3F31F1C3D1EF3FE9F74E
:10019800A4E1B0E00E94BE031A3011F40FE217C0C8
:1001A8001B3011F40AE213C01D3011F40DE20FC028
:1001B8001C3011F40BE20BC01E3011F40DE307C024
:1001C8001F3011F403E603C0E12FE05D0E2F0A9300
:1001D800A32F03D03E2FD5CFFFCFAA931A930A930C
:1001E800EA81F0E03097C1F40E94730351F0AB81CB
:1001F8000E941B03E1E0EA83EB81F0E0F0972F0116
:100208000AC0AB81A33619F40E94780304C0A7E79B
:10021800B2E00E947E03AFC0E130A0E0FA0761F5CA
:100228000E94730389F0AB810E941B03E1E0EA831B
:10023800F201AAE0B0E00E94DF032F01EB81F0E0B9
:10024800F0974E0E5F1E17C0AB81A33619F40E94BB
:10025800780311C0AB81C5D0309739F0AB810E94CB
:100268001B03E2E0EA839B8006C00E948303ADE79C
:10027800B2E00E947E037FC0E230A0E0FA0761F599
:100288000E94730351F0AB810E941B03E3E0EA83F1
:10029800EB81F0E0F0973F011EC0AB81A33619F463
:1002A8000E94780318C0AB81AD3379F40E948703AC
:1002B80041F00E948303A3E8B2E00E943003E4E027
:1002C80002C00E949103EA8306C00E948303A1E949
:1002D800B2E00E947E034FC0E330A0E0FA0789F540
:1002E8000E94730381F0AB81A2D1E3E0EA83F301BA
:1002F800AAE0B0E00E94DF033F01EB81F0E0F09755
:100308006E0E7F1E1DC0AB81A33619F40E947803C0
:1003180017C0AB81AD3371F40E94870339F00E9496
:100328008303A7E9B2E098D1E4E002C00E949103F8
:10033800EA8306C00E948303A5EAB2E00E947E0316
:100348001AC0E430A0E0FA0731F4AB81A33611F407
:100358000E94780310C0E530A0E0FA0761F4AB8191
:10036800A33619F40E94780306C00E948303ABEAFF
:10037800B2E00E947E03EA8119810881A6C0AA938F
:10038800A981BA81E0E0F0E00E94D1030E2EA88195
:10039800EFE20E94CC03E02119F0E1E0F0E06BC14C
:1003A800E0E0F0E068C1AA931A930A9300E010E035
:1003B8000A30E0E01E0784F4A1EBB2E0A00FB11F01
:1003C800EC91AA81EA1729F4E1E0F0E019810881AB
:1003D80052C10F5F1F4FECCFE0E0F0E019810881B8
:1003E8004AC1AA931A930A9300E010E00A30E0E0A9
:1003F8001E0784F4ABEBB2E0A00FB11FEC91AA8109
:10040800EA1729F4E1E0F0E01981088134C10F5FAF
:100418001F4FECCFE0E0F0E0198108812CC1AA93CE
:10042800E881F0E0EB32A0E0FA0729F40E94A50386
:10043800EA0FFB1F1CC0ED32A0E0FA0739F4A981CE
:10044800BA81EB81FC81EA1BFB0B11C0EA32A0E008
:10045800FA0729F40E94A5030E94DF0308C0EF32BF
:10046800A0E0FA0721F40E94A5030E94F70325964D
:100478000895BA93AA93A881B981E6EFFFEFEA1726
:10048800FB0774F0EA81FB81FA93EA93AA81BB81A6
:10049800EAE0F0E00E94F703DF01EBDFEA83FB8389
:1004A800EA81FB813196EA83FB833197BF01A881FA
:1004B800B981EAE0F0E00E94FC03A0E30E9418047E
:1004C800EA1BDB01EC93EA81FB8124960895BA9339
:1004D800AA931A930A930C811D81AB81AA2332F443
:1004E800D8010F5F1F4FEDE2EC9306C0EA81FB8154
:1004F8000E94C803EA83FB831A930A93AC81BD81E7
:10050800B8DFA0E0A083EC81FD81198108812696DF
:1005180008951A931FEF909A91980E94AA03849BBA
:1005280002C017E00AC0859B02C018E006C0869B7F
:1005380002C019E002C087991AE09098919A0E9427
:10054800AA03849B02C014E00AC0859B02C015E080
:1005580006C0869B02C016E002C087991BE09098EF
:100568009198929A9398A5E0B0E00E94BE03849B6C
:1005780002C011E00AC0859B02C012E006C0869B3B
:1005880002C013E002C087991DE090989198929854
:10059800939AA5E0B0E00E94BE03849B02C01FE0CE
:1005A8000AC0859B02C010E006C0869B02C01EE000
:1005B80002C087991CE0E12F19910895AA93E5B329
:1005C800EF70AE2FE881E07FEA2BE5BB8DE08A95DE
:1005D800F1F7AA9A8DE08A95F1F7AA988DE08A95A5
:1005E800F1F777C0AA93A881E9DFE881E295E8836B
:1005F800A881E4DF85E88A95F1F76BC0AA93E881C2
:10060800F0E0E753FD4FE081A981AE0FEBDF898071
:10061800B88022960895A2E00E94B003ACE0E2DF21
:10062800A1E00E94B003E0E0BE2E8E2E0895AA93AA
:10063800A881AA3011F08A1448F0E0E0EA93B39454
:10064800AB2DDCDFA881AA3009F443C08394A89AB3
:10065800A881C8DFA8983DC0BA93AA931A93A98124
:10066800BA81ED91A983BA831E2FE03019F0A12F2A
:10067800DEDFF5CF188123960895AA93E4B3E06FDF
:10068800E4BBA29AA09AA19AAA98A898A998A88027
:10069800E881E058E093CB02E881E054E093CC0293
:1006A800A4E1B0E00E94BE030E94B6030E94B60314
:1006B8000E94B603A0E282DF88EC90E00197F1F790
:1006C800A8E290DFA4E08EDFA5E88CDFA6E08ADF51
:1006D800A2DF21960895EA93A0E00C940203AB816F
:1006E8000E94D70130970895E0E0EA830E940F0343
:1006F800E0E0F1CF0E943003E4E0EA8308950E942D
:100708000F03E0E0E8CFAB810E941B037A926A9264
:10071800A92D0E94C301309708955A924A927A925D
:100728006A92A92D0E9413028F01EFEBF2E0FA936F
:10073800EA93D8010E946B02DF010E943003E5E0D2
:100748000895E981FA81AB81BC81089592989398C4
:10075800A5E0B0E00C94BE030E94F602A3E0B0E06E
:100768000C94BE03A0E30E94E20288EC90E001979B
:10077800F1F70895109639F080ED97E00197F1F7B9
:10078800A8951197C9F70895F195E195F040089556
:10079800EA17E1E009F0EE270895EA17FB07E1E020
:1007A80009F0EE270895FA9FF02DEB9FF00DEA9FD0
:1007B800E02DF10D08952AD0F6DF0EF4E5DF089557
:1007C8000024112490E1AA0FBB1F001C111C0E1A53
:1007D8001F0A18F40E0E1F1E01C0A1609A9599F702
:1007E800FD01D001089512D0EBDF0EF4CDDF08959E
:1007F800E894B7FF04C0A095B09511966894F7FDEA
:10080800C3DFDEDFFD010EF4BFDF0895E894F7FFD4
:1008180002C0BADF6894B7FF06C0A095B0951196DC
:1008280000F8039400FA08951A2EAE2FE12D0895CA
:00000001FF
