:020000020000FC
:0200000014C02A
:02001C0089C099
:100028007EC008E00EBF0FE50DBF0FEF04BB01BB9C
:100038000BBB00E00ABB80E090E009E003BF08ECDE
:100048000CBF0BE20BBD01E10ABD00E00FBD0CE0E7
:100058000EBD02E109BF789440E050E060E070E036
:10006800A82FAA3020F02AE0A21B6395FACF7A2F96
:10007800A92FAA3020F02AE0A21B4395FACF5A2FC5
:100088000E94C500E9CF20C00EEF02BB042F0E94DA
:100098009D0005BB0E9489000DEF02BB052F0E9441
:1000A8009D0005BB0E9489000BEF02BB062F0E9432
:1000B8009D0005BB0E94890007EF02BB072F0E9425
:1000C8009D0005BB0E9489000895C1E0B9B3CB2308
:1000D800C03009F003C00E94750002C00E947E0073
:1000E80008958395843628F080E09395943608F037
:1000F80090E00895803011F08A9506C083E690302C
:1001080011F09A9501C093E6089511E021E03FEFC0
:100118003A95F1F72A95D9F71A95C1F70895F89401
:100128000E94470078941895F8940E946900789482
:100138001895003011F40FE30895013011F406E02A
:100148000895023011F40BE50895033011F40FE41B
:100158000895043011F406E60895053011F40DE60B
:100168000895063011F40DE70895073011F407E0FB
:100178000895083011F40FE70895093009F40FE6DF
:1001880008950EEF02BB042F0E949D0005BB0E943C
:1001980089000DEF02BB052F0E949D0005BB0E9440
:1001A80089000BEF02BB062F0E949D0005BB0E9431
:1001B800890007EF02BB072F0E949D0005BB0E9424
:0401C800890008950D
:00000001FF
