:020000000C945E
:100002004A000C9400000C9400000C9400000C9424
:1000120000000C9400000C9400000C9400000C945E
:1000220000000C9400000C9400000C9400000C944E
:1000320000000C9400000C9400000C9400000C943E
:1000420000000C9400000C9400000C9400000C942E
:100052000000FFFFFFFFFFFFFFFFFFFFFFFFFFFFAC
:10006200FFFF1FC3DCDCC31FFF0076767689FFC368
:10007200BD7E7E7E7EFF007E7E7EBDC3FF007676E5
:10008200767EFF00F6F6F6F6FFFFFFFFFFFFFFFFAB
:10009200FFFFF894EE27ECBBF1E0FBBFEBBFE5BF3F
:1000A2008DE0A2E0BB27ED938A95E9F780E098E026
:1000B200A0E6ED930197E9F7EFE5EDBFE8E0EEBFCB
:1000C200C0E6D2E00C946500EFEFE4BBE1BBE7BB16
:1000D20050E0583318F531E03B30F0F401E010E025
:1000E2001830C0F4E8E3E51BE10F2E2F02BBE0E07D
:1000F200E8BBE22FF0E014D008BBE0E0E2BBE22F65
:10010200F0E03896AFE3B0E00E94A70009D0000FFC
:100112001F5FE6CF3F5FE0CF5F5FDBCFD9CFFFCF7F
:10012200EC5AFF4F049005BAA2E0B0E00C9499009B
:10013200109639F080ED97E00197F1F7A8951197A5
:10014200C9F70895F195E195F0400895E894F7FF15
:1001520002C0F8DF6894EA23FB230EF4F3DF08956C
:00000001FF
