:100000000C943D000C946A000C9476000C948200D1
:100010000C9400000C9400000C9400000C94000060
:100020000C9400000C9400000C9400000C94000050
:100030000C9400000C9400000C9400000C94000040
:100040000C9400000C9400000C9400000C94000030
:100050000C9400000000000080C001002D4E414EB5
:1000600000494E46000004000400540002006002F3
:100070005800010064025A000000F894EE27ECBB1F
:10008000F1E0FBBFEBBFE5BF8DE0A2E0BB27ED9346
:100090008A95E9F780E098E0A0E6ED930197E9F70B
:1000A000E6E6F0E085919591009761F0A591B59114
:1000B00005901590BF01F00105900D920197E1F7B1
:1000C000FB01F0CFEFE5EDBFE8E0EEBFC0E6D2E028
:1000D0000C949D000E949F0119F4F3013A9602C00E
:1000E000F30131963F010E94B10115C00E949F01AA
:1000F00019F4F3013A9702C0F30131973F010E94CE
:10010000B10109C00E949F0119F44424552403C081
:10011000E1E0F0E02F01A4E1B0E00E94CE01E9911E
:10012000EFBFF991E991B991A9919991899179914B
:100130006991F990199009901895E0E0EABBEBBB42
:10014000E7BBE8BBE8E0E4BBE0E0E5BBE1BBE2BB6A
:10015000E3BFE2BFECBFEFBDEEBDEDBDECBDE7BD63
:10016000E6BDEBBDEABDE9BDE8BDE2BDE5BDE4BD70
:10017000E3BDE9BFEBB7E06EEBBFEAE0E5BFE0E06F
:10018000E4BFE0EEEABFE0E0EAB9E0E8E8B9E0E0C9
:10019000E0BFE6B9EDB9E6BFA0E175D0789441D0F3
:1001A000A0E34BD0042C052811F4E0E0E5BBE1E02E
:1001B000F0E0E415F50511F4E8E0E5BBA4E1B0E0FA
:1001C0000E94CE01EFCFFFCFAA93E5B3EF70AE2F21
:1001D000E881E07FEA2BE5BB8DE08A95F1F7AA9AEA
:1001E0008DE08A95F1F7AA988DE08A95F1F777C0AE
:1001F000AA93A881E9DFE881E295E883A881E4DF9A
:1002000085E88A95F1F76BC0AA93E881F0E0E05A9F
:10021000FD4FE081A981AE0FEBDFB980A880229667
:100220000895A2E00E94C001ACE0E2DFA1E00E94DC
:10023000C001E0E0AE2EBE2E0895AA93A881AA3098
:1002400011F0BD1448F0E0E0EA93A394AA2DDCDF9E
:10025000A881AA3009F443C0B394A89AA881C8DF42
:10026000A8983DC0BA93AA931A93A981BA81ED9137
:10027000A983BA831E2FE03019F0A12FDEDFF5CF5E
:10028000188123960895AA93E4B3E06FE4BBA29A81
:10029000A09AA19AAA98A898A998D880E881E0582D
:1002A000E0936202E881E054E0936302A4E1B0E0ED
:1002B0000E94CE010E94C6010E94C6010E94C60192
:1002C000A0E282DF88EC90E00197F1F7A8E290DFEE
:1002D000A4E08EDFA5E88CDFA6E08ADFA2DF21960E
:1002E0000895BA93AA93A991B991E991F991309699
:1002F0002AF4E095F09531966DE26D93E89480E1F3
:1003000097E20DD088EE93E00AD084E6992707D0D3
:100310008AE005D06E2F10D066276C93089566276B
:10032000E817F90720F06395E81BF90BC9F7662376
:1003300011F416F008956894605D6D9308950A9223
:100340001A92FA926A937A938A939A93AA93BA9397
:10035000EA93FA93EFB7EA93E1E0F0E0E415F505EC
:1003600008950E941101E0E0EA93A0E00E940401D8
:100370007A926A92D4010E947101D4010C943201E4
:100380000E94F800A3E0B0E00C94CE01A0E30E942C
:10039000E40088EC90E00197F1F70895109639F0A9
:1003A00080ED97E00197F1F7A8951197C9F70895A7
:00000001FF
