:080000000C9447000C94000071
:100008000C9400000C9400000C9400000C94000068
:100018000C9400000C941C010C9400000C9400003B
:100028000C9400000C9400000C9400000C94000048
:100038000C9400000C9400000C9400000C94000038
:100048000C9400000C9400000C9400001027E803A6
:1000580064000A0001000010000110000100020005
:100068000300050008004C434420436C6F636B0099
:1000780080C007006A0266000A0060026E00020083
:10008800780278000000F894EE27ECBBF1E0FBBFA3
:10009800EBBFE5BF8DE0A2E0BB27ED938A95E9F7BA
:1000A80080E098E0A0E6ED930197E9F7EAE7F0E051
:1000B80085919591009761F0A591B591059015905E
:1000C800BF01F00105900D920197E1F7FB01F0CF18
:1000D800EFE5EDBFE8E0EEBFC0E6D2E00C943901F1
:1000E800A6E7B2E00E94F801E0917602F09177026B
:1000F800EA30A0E0FA0741F4E6E7F2E00E94FE01E8
:10010800A4E7B2E00E94F801E0917402F091750250
:10011800EA30A0E0FA0741F4E4E7F2E00E94FE01C9
:10012800A2E7B2E00E94F801E0917202F091730236
:10013800E630A0E0FA0741F4E2E7F2E00E94FE01AF
:10014800A0E7B2E00E94F801E0917002F09171021C
:10015800EA30A0E0FA0741F4E0E7F2E00E94FE018D
:10016800AEE6B2E00E94F801E0916E02F0916F02F3
:10017800E630A0E0FA0741F4EEE6F2E00E94FE0164
:10018800ACE6B2E00E94F801A0916A02B0916B025D
:10019800129791F4E0916C02F0916D02E430A0E0C6
:1001A800FA0749F4ECE6F2E00E94FE01E0E0E09391
:1001B8006A02E0936B0210C0E0916C02F0916D024C
:1001C800EA30A0E0FA0741F4ECE6F2E00E94FE0112
:1001D800AAE6B2E00E94F80108951A93E4E00E94AA
:1001E8000302E0916A020E940702E0916C020E94F9
:1001F8000702E7E00E940302E0916E020E940702F4
:10020800E09170020E940702EAE00E940302E09176
:1002180072020E940702E09174020E940702EDE058
:100228000E940302E09176020E9407021991089544
:100238000A921A92FA926A937A938A939A93AA9351
:10024800BA93EA93FA93EFB7EA934ADFC6DFE991E4
:10025800EFBFF991E991B991A99199918991799112
:100268006991F990199009901895E0E0EFBDEBE0DD
:10027800EEBDE0E0EDBDECBDE7BDE6BDE0E2EBBD07
:10028800E0E0EABDE9BDE8BDE2E1E9BF7894A0E1BC
:100298000E94CA01E4E0EA93A0E00E948B01A0E674
:1002A800B2E00E94B901E6E00E940302AAE30E94BC
:1002B800A401E9E00E940302AAE30E94A401ECE081
:1002C8000E940302ACE20E94A401FFCFFFCFAA93D1
:1002D800E5B3EF70AE2FE881E07FEA2BE5BB8DE058
:1002E8008A95F1F7AA9A8DE08A95F1F7AA988DE098
:1002F8008A95F1F777C0AA93A881E9DFE881E295AA
:10030800E883A881E4DF85E88A95F1F76BC0AA93B2
:10031800E881F0E0E858FD4FE081A981AE0FEBDFFE
:100328005980488022960895A2E00E940C02ACE011
:10033800E2DFA1E00E940C02E0E04E2E5E2E08955E
:10034800AA93A881AA3011F0571448F0E0E0EA9384
:100358004394A42DDCDFA881AA3009F443C0539448
:10036800A89AA881C8DFA8983DC0BA93AA931A93FF
:10037800A981BA81ED91A983BA831E2FE03019F0C3
:10038800A12FDEDFF5CF188123960895AA93E4B351
:10039800E06FE4BBA29AA09AA19AAA98A898A998F3
:1003A8007880E881E058E0937A02E881E054E093AD
:1003B8007B02A4E1B0E00E941A020E9412020E948D
:1003C80012020E941202A0E282DF88EC90E00197FC
:1003D800F1F7A8E290DFA4E08EDFA5E88CDFA6E0C5
:1003E8008ADFA2DF21960895ED91FD913196FE9363
:1003F800EE930895A0E0B0E0A083B1830895EA9356
:10040800A1E00C948B01E05D1E2FA12F0C94A40198
:100418000E947F01A3E0B0E00C941A02A0E30E94BE
:100428006B0188EC90E00197F1F70895109639F088
:1004380080ED97E00197F1F7A8951197C9F708950E
:00000001FF
