:080000000C944C000C9400006C
:100008000C9400000C9400000C9400000C94000068
:100018000C9400000C9400000C9400000C94000058
:100028000C9400000C9400000C9400000C94000048
:100038000C9400000C9400000C9400000C94000038
:100048000C9400000C9400000C9400001027E803A6
:1000580064000A00010000100001100001004C4D6E
:1000680033352053656E736F720054656D703A00B6
:100078002743000080C00C006002660006006C0286
:100088007200030072027800020075027C00000012
:10009800F894EE27ECBBF1E0FBBFEBBFE5BF8DE0CA
:1000A800A2E0BB27ED938A95E9F780E098E0A0E607
:1000B800ED930197E9F7EEE7F0E0859195910097C8
:1000C80061F0A591B59105901590BF01F0010590DB
:1000D8000D920197E1F7FB01F0CFEFE5EDBFE8E006
:1000E800EEBFC0E6D2E00C94E500BA93AA93A881CB
:1000F800B981E6EFFFEFEA17FB0774F0EA81FB81AD
:10010800FA93EA93AA81BB81EAE0F0E00E94250312
:10011800DF01EBDFEA83FB83EA81FB813196EA8327
:10012800FB833197BF01A881B981EAE0F0E00E9422
:100138002A03A0E30E945003EA1BDB01EC93EA8147
:10014800FB8124960895BA93AA931A930A930C8173
:100158001D81AB81AA2332F4D8010F5F1F4FEDE256
:10016800EC9306C0EA81FB810E940103EA83FB83CA
:100178001A930A93AC81BD81B8DFA0E0A083EC811B
:10018800FD811981088126960895E0E0EABBE7E839
:10019800E6B9E0E4E7B90895AA93E881E770E06476
:1001A800E7B9369A349BFECF349AA1E0B0E00E94BA
:1001B800D001A1E0B0E00E94D001E4B1F5B10C9407
:1001C800BC012797A0E10E949001DFDFE3E0EA93FA
:1001D800A0E00E945101A0E6B2E00E947F01E3E0A6
:1001E8000E94BE01ACE6B2E00E947F01ECE00E94F2
:1001F800BE01A2E7B2E00E947F01A0E0CDDF0E942D
:100208000D030E944002A6EFB8E28CE990E40E9438
:100218006E020E944B030E944603E0E0F0E060E2B9
:1002280071E40E94BC020E944B03E9E00E94BE01F7
:10023800FE013496FA93EA93EA81FB816C817D8111
:100248000E940902DF017FDFDF010E947F01A8EE23
:10025800B3E00E94D001D1CFFFCFAA93E5B3EF70EE
:10026800AE2FE881E07FEA2BE5BB8DE08A95F1F7B8
:10027800AA9A8DE08A95F1F7AA988DE08A95F1F708
:1002880077C0AA93A881E9DFE881E295E883A8818D
:10029800E4DF85E88A95F1F76BC0AA93E881F0E07E
:1002A800EB58FD4FE081A981AE0FEBDF5980488004
:1002B80022960895A2E00E94C201ACE0E2DFA1E02C
:1002C8000E94C201E0E04E2E5E2E0895AA93A881F6
:1002D800AA3011F0571448F0E0E0EA934394A42DB3
:1002E800DCDFA881AA3009F443C05394A89AA881F6
:1002F800C8DFA8983DC0BA93AA931A93A981BA8176
:10030800ED91A983BA831E2FE03019F0A12FDEDF0B
:10031800F5CF188123960895AA93E4B3E06FE4BB60
:10032800A29AA09AA19AAA98A898A9987880E881F0
:10033800E058E0937702E881E054E0937802A4E182
:10034800B0E00E94D0010E94C8010E94C8010E942A
:10035800C801A0E282DF88EC90E00197F1F7A8E2FB
:1003680090DFA4E08EDFA5E88CDFA6E08ADFA2DFBD
:1003780021960895EA93A1E00C9451010E94450149
:10038800A3E0B0E00C94D001A0E30E94310188EC16
:1003980090E00197F1F70895109639F080ED97E015
:1003A8000197F1F7A8951197C9F70895552342F4D5
:1003B800503811F4E0FF04C03196691F791F6BF0C3
:1003C80050E8572711F45F9373C05F3F31F0660F11
:1003D800000C57956795752F08955F9300200AF0D4
:1003E80073C06CC050E8192E1522880F991F9527E5
:1003F800550F879550E8072E0522660F771F75273A
:10040800550F67950895689401C0E8945F93F2DFEB
:10041800703818F07F3F08F44BC056E1571BAAF418
:10042800519558300EF4593030F0EFEFFFEF6FEF81
:100438007FE777F91AC077275523B9F0EE0FFF1F2A
:10044800661F771F5A95D1F710C07727583028F0C4
:10045800EF2FF62F672F5850F9CF552331F07695A7
:100468006795F795E7955A95D1F700200AF4C9D012
:100478005F910895689401C0E89430976040704097
:10048800B1F0002426F0772312F40094BAD0172E86
:100498007EE1112032F07A95EE0FFF1F661F111CC6
:1004A800F9CFEF2FF62F612D5F938ADF5F910895C3
:1004B800EE27FF27662777275F910895EFEFFFEF75
:1004C8006FE77FEF5F910895EFEFFFEF6FE77FE74B
:1004D8005F9108955F9386DF703851F3903841F348
:1004E80001240894791F23F41CF300203AF3ECCF7D
:1004F8000F921F932F933F934F93112722279927EA
:10050800689FA0018F9F302D410D591F6B9F300DA3
:10051800411D591F8E9F27D0BF9F25D06A9F23D08A
:10052800BE9F1DD0AF9F1BD0AE9F110D291F391F35
:10053800491F591FE32FF42F652F522F4F913F91D9
:100548002F911F910F9066232AF0550FEE1FFF1F62
:10055800661F02C073954BF229DF5F910895100D55
:10056800211D391F02C0200D311D491F591F089533
:100578005F9338DF703821F411200AF49FCFA4CF9D
:10058800903809F495CF01240894970B1BF4D4F301
:100598000020F3CF792F1F932F933F934F9311246C
:1005A8001127222733274427552790E2AE17BF0784
:1005B8008607410730F0AE1BBF0B860B410B089432
:1005C80001C08894551F221F331F111CAA1FBB1F6F
:1005D800881F441F9A9551F7F901612D4F913F915A
:1005E8002F911F91662332F0550FEE1FFF1F661FD4
:1005F8007A9543F2DBDE5F910895F195E195F0403D
:100608000895F09560957095E195FF4F6F4F7F4F76
:1006180008956F2F660F660B762F08950024112416
:1006280090E1AA0FBB1F001C111C0E1A1F0A18F418
:100638000E0E1F1E01C0A1609A9599F7FD01D00109
:10064800089512D0EBDF0EF4D8DF0895E894B7FFD1
:1006580004C0A095B09511966894F7FDCEDFDEDF53
:10066800FD010EF4CADF0895E894F7FF02C0C5DF64
:100678006894B7FF06C0A095B095119600F803944A
:1006880000FA0895A881B9818A819B810895E88339
:10069800F9836A837B8308951A2EAE2FE12D08957E
:00000001FF
