:0E0000000C943F000C9400000C9400000C9433
:10000E0000000C9400000C9400000C9400000C9462
:10001E0000000C9400000C9400000C9400000C9452
:10002E0000000C9400000C9400000C9400000C9442
:10003E0000000C9400000C9400000C9400000C9432
:10004E0000000C9400001027E80364000A00010071
:10005E000010000110000100506F6F726961205294
:10006E006168696D690080C0020060027400000062
:10007E00F894EE27ECBBF1E0FBBFEBBFE5BF8DE0E4
:10008E00A2E0BB27ED938A95E9F780E098E0A0E621
:10009E00ED930197E9F7E6E7F0E0859195910097EA
:1000AE0061F0A591B59105901590BF01F0010590F5
:1000BE000D920197E1F7FB01F0CFEFE5EDBFE8E020
:1000CE00EEBFC0E6D2E00C946C002E978EE0A0E05E
:1000DE00B0E0E6E6F0E00E94980120E030E0E0E0DB
:1000EE00EABBEBBBE7BBE8BBE4BBE5BBE1BBE2BBFA
:1000FE00E3BFE2BFECBFEFBDEEBDEDBDECBDE7BDB6
:10010E00E6BDEBBDEABDE9BDE8BDE2BDE5BDE4BDC2
:10011E00E3BDE9BFE5BFE4BFEBB9E8E1EAB9E6E864
:10012E00E0BDE0E0E0BDE3E3E9B9E0E8E8B9E0E036
:10013E00E0BFE6B9EDB9E6BFA0E186D00E94590155
:10014E001E2FA12F0E945D010E947201133411F423
:10015E004DD01BC01E3431F4DE010E9464010E949A
:10016E00720113C0133661F420E030E02831E0E074
:10017E003E072CF40E9472012F5F3F4FF7CF05C050
:10018E001D3419F433D0DE0154D0D8CFFFCFAA934B
:10019E00E5B3EF70AE2FE881E07FEA2BE5BB8DE093
:1001AE008A95F1F7AA9A8DE08A95F1F7AA988DE0D3
:1001BE008A95F1F70C946201AA93A881E8DFE88191
:1001CE00E295E883A881E3DF85E88A95F1F70C9440
:1001DE006201AA93E881F0E0E05AFD4FE081A98127
:1001EE00AE0FEADF5980488022960895A2E00E9461
:1001FE007801ACE0E1DFA1E00E947801E0E04E2E54
:10020E005E2E0895AA93A881AA3011F0571450F0CB
:10021E00E0E0EA934394A42DDCDFA881AA3011F428
:10022E000C9462015394A89AA881C6DFA8980C94E6
:10023E006201BA93AA931A930E947E0119F0A12F1C
:10024E00E1DFFACF0C946F01AA93E4B3E06FE4BB45
:10025E00A29AA09AA19AAA98A898A9987880E881BB
:10026E00E058E0936202E881E054E0936302A4E177
:10027E00B0E00E948E010E9486010E9486010E94BB
:10028E008601A0E284DF88EC90E00197F1F7A8E206
:10029E0093DFA4E091DFA5E88FDFA6E08DDFA6DF78
:1002AE000C9462015F9BFECFECB10895AA935D9B07
:1002BE00FECFE881ECB921960895BA93AA931A93CA
:1002CE000E947E0119F0A12FF1DFFACFAAE0EEDF36
:1002DE00188123960895ADE00E945D01AAE00C946A
:1002EE005D010E94E300A3E0B0E00C948E01A981B1
:1002FE00BA81ED91A983BA831E2FE0300895A0E351
:10030E000E94CE0088EC90E00197F1F708951096C8
:10031E0039F080ED97E00197F1F7A8951197C9F79D
:10032E000895AC0FBD1F05900D928A95E1F70895C3
:00000001FF
